:1000000014C02CC02BC02AC029C028C027C027C0BC
:1000100025C024C023C022C021C020C01FC01EC0D4
:100020001DC01CC01BC01AC019C011241FBECFEDBB
:10003000CDBF10E0A0E6B0E0E8EDF4E002C005902E
:100040000D92A236B107D9F720E0A2E6B0E001C0D8
:100050001D92AD36B207E1F706D13CC2D1CF1F9257
:100060000F920FB60F9211242F933F938F939F936C
:10007000EF93FF93E0916000F0E08CB1ED59FF4FFA
:10008000808380916000813021F4809164008E37FC
:1000900049F580916000833001F521E020936000F4
:1000A000909164008FEF892798E037E0880F08F47B
:1000B00083279A95D9F790916500892798E037E0D2
:1000C000880F08F483279A95D9F7909166009813C2
:1000D00009C020936200579805C0809160008F5F2F
:1000E00080936000FF91EF919F918F913F912F91AD
:1000F0000F900FBE0F901F901895861708F46FC0D1
:1001000070E090E09B01295F3F4F281739070CF002
:1001100068C02B5F3F4F281739070CF064C02C5F75
:100120003F4F281739070CF060C02C5F3F4F28174E
:1001300039070CF05CC02C5F3F4F281739070CF0D3
:1001400058C02C5F3F4F281739070CF054C02D5F63
:100150003F4F281739070CF050C02C5F3F4F28172E
:1001600039070CF04CC02D5F3F4F281739070CF0B2
:1001700048C02C5F3F4F281739070CF044C02D5F53
:100180003F4F281739070CF040C02D5F3F4F28170D
:100190003907ECF52C5F3F4F28173907D4F52D5F51
:1001A0003F4F28173907BCF52C5F3F4F28173907F9
:1001B000A4F52C5F3F4F281739078CF52C5F3F4F74
:1001C0002817390774F52C5F3F4F281739075CF55E
:1001D000645B7F4F6817790744F580E0089584E6F3
:1001E00008958FE508958AE5089585E5089580E5E9
:1001F00008958BE4089586E4089581E408958CE3DE
:10020000089587E3089582E308958DE2089588E2D2
:10021000089583E208958EE1089589E1089584E1C7
:1002200008958FE008958AE0089585E00895969AEC
:100230002FEF84E39CE0215080409040E1F700C024
:1002400000008599F5CF96980895C09A2FEF84E322
:100250009CE0215080409040E1F700C00000859B69
:10026000F5CFC0980895F894A89584B7877F84BF88
:1002700081B5886181BD81B5816281BDC1D0C5D0A4
:10028000CAD073D0D4D08D988E9AB89AB99A959ACC
:100290009698C098C198D9DFDEE711E0809162009E
:1002A000109262005798C19A87EC90E00197F1F79D
:1002B00000C000008091650080FDB9DF809165007D
:1002C00081FDC3DF80916500B5D064E116DF082FA2
:1002D0008091650051D080D0F82E80916500C0B328
:1002E000D0936800809168009ED0C5FBCC27C0F9F0
:1002F000C127C795CC27C795C09369008091690035
:1003000092D0F0926A0080916A008DD000936B00C9
:1003100080916B0088D021E030E08FEFF901E9593E
:10032000FF4F9081892798E047E0880F08F48427E1
:100330009A95D9F72F5F3F4F2530310579F7809394
:100340006C0080916C006FD05E9BFECF5E9A87EC54
:1003500090E00197F1F700C0000087EC90E0019772
:10036000F1F700C00000A89599CF8B9881B3846104
:1003700081BB9298949A0895929894982FE080E087
:1003800090E0EFECF7E03197F1F700C00000880F44
:10039000991F83998160E3EFF1E03197F1F700C095
:1003A0000000929AEFECF7E03197F1F700C00000FF
:1003B0009298215031F79298949A9F7024E09695E4
:1003C00087952A95E1F76DE770E053D063E370E01D
:1003D0006DD0CB01CE970895AC0190E0892F6AE0F3
:1003E0003FD08B5F282F30E02417350710F49F5F34
:1003F000F5CF892F6AE04ED08295807F892B0895B2
:1004000012BE10BE81E083BF08951DBC1CBC1FBC82
:1004100082E08EBD089588E98AB986E083B989E1D2
:1004200089B912B808955D9BFECF8CB90895BC9A26
:10043000BB980895C49A8AE18A95F1F700C0C498E0
:10044000B39BFECF1DBC1CBCB399FECF8CB59DB534
:10045000880F991F6AE370E029D081E0860F089524
:10046000002480FD060E660F11F08695D1F7802DD1
:1004700008950024552704C0080E591F880F991F9E
:10048000009729F076956795B8F37105B9F7802D37
:10049000952F0895991B79E004C0991F961708F0CD
:1004A000961B881F7A95C9F780950895AA1BBB1BD8
:1004B00051E107C0AA1FBB1FA617B70710F0A61B64
:1004C000B70B881F991F5A95A9F780959095BC0185
:0804D000CD010895F894FFCF5F
:0204D800010021
:00000001FF
