:1000000014C02CC02BC02AC029C028C027C027C0BC
:1000100025C024C023C022C021C020C01FC01EC0D4
:100020001DC01CC01BC01AC019C011241FBECFEDBB
:10003000CDBF10E0A0E6B0E0EEEEF4E002C0059027
:100040000D92A236B107D9F720E0A2E6B0E001C0D8
:100050001D92AD36B207E1F7EAD047C2D1CF1F9269
:100060000F920FB60F9211242F933F938F939F936C
:10007000EF93FF93E0916000F0E08CB1ED59FF4FFA
:10008000808380916000813021F4809164008E37FC
:1000900049F580916000833001F521E020936000F4
:1000A000909164008FEF892798E037E0880F08F47B
:1000B00083279A95D9F790916500892798E037E0D2
:1000C000880F08F483279A95D9F7909166009813C2
:1000D00009C020936200579805C0809160008F5F2F
:1000E00080936000FF91EF919F918F913F912F91AD
:1000F0000F900FBE0F901F901895861708F46FC0D1
:1001000070E090E09B01295F3F4F281739070CF002
:1001100068C02B5F3F4F281739070CF064C02C5F75
:100120003F4F281739070CF060C02C5F3F4F28174E
:1001300039070CF05CC02C5F3F4F281739070CF0D3
:1001400058C02C5F3F4F281739070CF054C02D5F63
:100150003F4F281739070CF050C02C5F3F4F28172E
:1001600039070CF04CC02D5F3F4F281739070CF0B2
:1001700048C02C5F3F4F281739070CF044C02D5F53
:100180003F4F281739070CF040C02D5F3F4F28170D
:100190003907ECF52C5F3F4F28173907D4F52D5F51
:1001A0003F4F28173907BCF52C5F3F4F28173907F9
:1001B000A4F52C5F3F4F281739078CF52C5F3F4F74
:1001C0002817390774F52C5F3F4F281739075CF55E
:1001D000645B7F4F6817790744F580E0089584E6F3
:1001E00008958FE508958AE5089585E5089580E5E9
:1001F00008958BE4089586E4089581E408958CE3DE
:10020000089587E3089582E308958DE2089588E2D2
:10021000089583E208958EE1089589E1089584E1C7
:1002200008958FE008958AE0089585E00895F89490
:10023000A89584B7877F84BF81B5886181BD88E236
:1002400081BDD9D0DCD0F4D08DD0FED08D988E9ADF
:10025000B89AB99A959A9698C098C1987894C09A85
:10026000859BFECF8AE090E0E2D0C098C0E010E02D
:10027000D0E00EE7FF24F39480916200882309F414
:100280006FC0109262005798C19A88EC90E0BBD082
:100290008091650080FF07C0969A8599FECF84EF14
:1002A00091E0C5D096988091650081FF07C0C09A03
:1002B000859BFECF8AE090E0BAD0C098809165001F
:1002C00082FF04C0C4D064E118DFD82F809165009C
:1002D00083FF03C04ED07BD0182F8091650084FF30
:1002E00005C0C0B3C5FBCC27C0F9CF25009368007B
:1002F00080916800A5D08C2F87958827879580935B
:100300006900809169009CD010936A0080916A0016
:1003100097D0D0936B0080916B0092D021E030E0B9
:100320008FEFF901E959FF4F9081892798E047E065
:10033000880F08F484279A95D9F72F5F3F4F25300F
:10034000310579F780916C007BD05E9BFECF5E9A81
:1003500088EC90E058D0C19888EC90E054D0579A3F
:10036000A8958ACF8B9881B3846181BB9298949A27
:1003700008951F93CF93DF93929894981FE0C0E065
:10038000D0E082E090E053D0CC0FDD1F8399C160B4
:1003900084EF91E038D0929A82E090E048D0929831
:1003A000115079F79298949ACE019F7024E0969517
:1003B00087952A95E1F76DE770E066D063E370E01A
:1003C00080D0CB01CE97DF91CF911F910895AC01E2
:1003D00090E0892F6AE04FD08B5F282F30E0241700
:1003E000350710F49F5FF5CF892F6AE05ED08295C4
:1003F000807F892B089510BE81E083BF08951FBCC4
:1004000082E08EBD08959C0190E0492F50E0421794
:10041000530730F412BE82B78430E8F39F5FF5CF04
:100420000895892B19F012BE82B7FECF0895F9CF37
:1004300088E98AB986E083B989E189B912B8089553
:100440005D9BFECF8CB90895BC9ABB980895C49A61
:1004500084E190E0D8DFC498B39BFECF1DBC1CBCE8
:1004600086B38CB59DB5880F991F6AE370E029D0DB
:1004700081E0860F0895002480FD060E660F11F0BE
:100480008695D1F7802D08950024552704C0080EC5
:10049000591F880F991F009729F076956795B8F333
:1004A0007105B9F7802D952F0895991B79E004C047
:1004B000991F961708F0961B881F7A95C9F78095A3
:1004C0000895AA1BBB1B51E107C0AA1FBB1FA6179B
:1004D000B70710F0A61BB70B881F991F5A95A9F7ED
:0E04E00080959095BC01CD010895F894FFCF52
:0204EE0001000B
:00000001FF
