:1000000014C02CC02BC02AC029C028C027C027C0BC
:1000100025C024C023C022C021C020C01FC01EC0D4
:100020001DC01CC01BC01AC019C011241FBECFEDBB
:10003000CDBF10E0A0E6B0E0EAEDF4E002C005902C
:100040000D92A236B107D9F720E0A2E6B0E001C0D8
:100050001D92AD36B207E1F7F6D03DC2D1CF1F9267
:100060000F920FB60F9211242F933F938F939F936C
:10007000EF93FF93E0916000F0E08CB1ED59FF4FFA
:10008000808380916000813021F4809164008E37FC
:1000900049F580916000833001F521E020936000F4
:1000A000909164008FEF892798E037E0880F08F47B
:1000B00083279A95D9F790916500892798E037E0D2
:1000C000880F08F483279A95D9F7909166008913D1
:1000D00009C020936200579805C0809160008F5F2F
:1000E00080936000FF91EF919F918F913F912F91AD
:1000F0000F900FBE0F901F90189588E98AB986E07F
:1001000083B989E189B912B808955D9BFECF8CB996
:100110000895861708F46FC070E090E09B01295F96
:100120003F4F281739070CF068C02B5F3F4F281747
:1001300039070CF064C02C5F3F4F281739070CF0CB
:1001400060C02C5F3F4F281739070CF05CC02C5F54
:100150003F4F281739070CF058C02C5F3F4F281726
:1001600039070CF054C02D5F3F4F281739070CF0AA
:1001700050C02C5F3F4F281739070CF04CC02D5F43
:100180003F4F281739070CF048C02C5F3F4F281706
:1001900039070CF044C02D5F3F4F281739070CF08A
:1001A00040C02D5F3F4F28173907ECF52C5F3F4FBC
:1001B00028173907D4F52D5F3F4F28173907BCF5AD
:1001C0002C5F3F4F28173907A4F52C5F3F4F2817A6
:1001D00039078CF52C5F3F4F2817390774F52C5FD2
:1001E0003F4F281739075CF5645B7F4F6817790725
:1001F00044F580E0089584E608958FE508958AE542
:10020000089585E5089580E508958BE4089586E4D2
:10021000089581E408958CE3089587E3089582E3C7
:1002200008958DE2089588E2089583E208958EE1AD
:10023000089589E1089584E108958FE008958AE0A2
:10024000089585E00895F894A89584B7877F84BFC2
:1002500081B5886181BD88E281BD4FDFDED0E4D009
:100260008D988E9AB89AB99A959A9698C098C1988E
:100270007894C09A859BFECFC098C0E010E0D0E093
:100280000EE7FF24F39480916200882309F481C073
:10029000109262005798C19A87EC90E00197F1F7AD
:1002A00000C000008091650080FF0DC0969A85997E
:1002B000FECF9FE72AE186E0915020408040E1F7A1
:1002C00000C0000096988091650081FF0AC0C09A26
:1002D000859BFECF8FE097E20197F1F700C0000009
:1002E000C0988091650082FF04C0A4D064E111DF52
:1002F000D82F8091650083FF03C04DD074D0182F94
:100300008091650084FF05C0C0B3C5FBCC27C0F950
:10031000CF250093680080916800F7DE8C2F8795C9
:10032000882787958093690080916900EEDE10939D
:100330006A0080916A00E9DED0936B0080916B00C7
:10034000E4DE21E030E09FEFF901E959FF4F408101
:10035000942748E087E0990F08F498274A95D9F741
:100360002F5F3F4F2530310579F780916C00CDDE4E
:100370005E9BFECF5E9A87EC90E00197F1F700C09C
:100380000000C19887EC90E00197F1F700C00000F1
:10039000579AA89578CF9298949812BE2FE080E053
:1003A00090E032B73436E8F3880F991F8399816063
:1003B00032B73038E9F7929A32B73111FDCF9298BF
:1003C000215079F79298949A9F7024E0969587959A
:1003D0002A95E1F76DE770E04DD063E370E067D0F8
:1003E000CB01CE970895AC0190E0892F6AE039D017
:1003F0008B5F282F30E02417350710F49F5FF5CF6F
:10040000892F6AE048D08295807F892B089512BE9B
:1004100010BE83B7836083BF08958B9881B38461D6
:1004200081BB9298949AF3CF1FBC82E08EBDBC9A98
:10043000BB980895C49A1DBC1CBC8CB59DB50A9789
:10044000E0F3C498B39BFECF1DBC1CBC86B38CB537
:100450009DB5880F991F6AE370E029D081E0860F6F
:100460000895002480FD060E660F11F08695D1F7E1
:10047000802D08950024552704C0080E591F880FA9
:10048000991F009729F076956795B8F37105B9F72C
:10049000802D952F0895991B79E004C0991F961718
:1004A00008F0961B881F7A95C9F780950895AA1BB6
:1004B000BB1B51E107C0AA1FBB1FA617B70710F04F
:1004C000A61BB70B881F991F5A95A9F78095909581
:0A04D000BC01CD010895F894FFCFA0
:0204DA0001001F
:00000001FF
