:1000000014C02CC02BC02AC029C028C027C027C0BC
:1000100025C024C023C022C021C06FC01FC01EC085
:100020001DC01CC01BC01AC019C011241FBECFEDBB
:10003000CDBF10E0A0E6B0E0ECE4F5E002C0059032
:100040000D92A236B107D9F720E0A2E6B0E001C0D8
:100050001D92AF36B207E1F71ED176C2D1CF1F9203
:100060000F920FB60F9211242F933F938F939F936C
:10007000EF93FF93E0916000F0E08CB1EB59FF4FFC
:10008000808380916000813021F4809166008E37FA
:1000900049F580916000833001F521E020936000F4
:1000A000909166008FEF892798E037E0880F08F479
:1000B00083279A95D9F790916700892798E037E0D0
:1000C000880F08F483279A95D9F7909168009813C0
:1000D00009C020936400579805C0809160008F5F2D
:1000E00080936000FF91EF919F918F913F912F91AD
:1000F0000F900FBE0F901F9018951F920F920FB682
:100100000F9211248F939F938091620090916300CE
:100110000196909363008093620012BE9F918F912D
:100120000F900FBE0F901F901895861708F46FC0A0
:1001300070E090E09B01295F3F4F281739070CF0D2
:1001400068C02B5F3F4F281739070CF064C02C5F45
:100150003F4F281739070CF060C02C5F3F4F28171E
:1001600039070CF05CC02C5F3F4F281739070CF0A3
:1001700058C02C5F3F4F281739070CF054C02D5F33
:100180003F4F281739070CF050C02C5F3F4F2817FE
:1001900039070CF04CC02D5F3F4F281739070CF082
:1001A00048C02C5F3F4F281739070CF044C02D5F23
:1001B0003F4F281739070CF040C02D5F3F4F2817DD
:1001C0003907ECF52C5F3F4F28173907D4F52D5F21
:1001D0003F4F28173907BCF52C5F3F4F28173907C9
:1001E000A4F52C5F3F4F281739078CF52C5F3F4F44
:1001F0002817390774F52C5F3F4F281739075CF52E
:10020000645B7F4F6817790744F580E0089584E6C2
:1002100008958FE508958AE5089585E5089580E5B8
:1002200008958BE4089586E4089581E408958CE3AD
:10023000089587E3089582E308958DE2089588E2A2
:10024000089583E208958EE1089589E1089584E197
:1002500008958FE008958AE0089585E00895969ABC
:100260002FEF84E39CE0215080409040E1F700C0F4
:1002700000008599F5CF96980895C09A2FEF84E3F2
:100280009CE0215080409040E1F700C00000859B39
:10029000F5CFC0980895F894A89584B7877F84BF58
:1002A00081B5886181BD81B5816281BDE7D0F0D023
:1002B000F5D095D0FFD08D988E9AB89AB99A959A24
:1002C0009698C098C198D9DF7894C0E010E0D0E04B
:1002D0000EE7FF24F39480916400882309F470C032
:1002E000109264005798C19A87EC90E00197F1F75B
:1002F00000C000008091670080FDB1DF8091670041
:1003000081FDBBDF8091670082FF04C0D6D064E12D
:100310000CDFD82F8091670083FF03C067D09DD08A
:10032000182F8091670084FF05C0C0B3C5FBCC27A0
:10033000C0F9CF2500936A0080916A00B7D08C2F56
:1003400087958827879580936B0080916B00AED04E
:1003500010936C0080916C00A9D0D0936D008091B7
:100360006D00A4D021E030E08FEFF901E759FF4F95
:100370009081892798E047E0880F08F484279A95B0
:10038000D9F72F5F3F4F2530310579F780936E0005
:1003900080916E008BD05E9BFECF5E9A87EC90E0E2
:1003A0000197F1F700C00000C19887EC90E0019739
:1003B000F1F700C00000579A10926300109262009B
:1003C00080916200909163008132934030F01092EE
:1003D000630010926200859B50DFA8957CCF8B98BC
:1003E00081B3846181BB9298949A0895929894986D
:1003F0002FE080E090E0EFECF7E03197F1F700C0FC
:100400000000880F991F83998160E3EFF1E0319735
:10041000F1F700C00000929AEFECF7E03197F1F7A6
:1004200000C000009298215031F79298949A9F70E2
:1004300024E0969587952A95E1F76DE770E053D013
:100440008A35FCE09F0730F063E370E069D0CB01B0
:10045000CE97089580E090E00895AC0125E030E06B
:1004600080E02417350720F4265F3F4F8F5FF9CFD8
:100470006AE04AD08295807F892B089512BE10BE13
:1004800084E083BF89B7816089BF8CE986BF089506
:100490001DBC1CBC1FBC82E08EBD089588E98AB9D2
:1004A00086E083B989E189B912B808955D9BFECFD2
:1004B0008CB90895BC9ABB980895C49A8AE18A952C
:1004C000F1F700C0C498B39BFECF1DBC1CBCB39910
:1004D000FECF8CB59DB5880F991F6AE370E020D0E0
:1004E00081E0860F08950024552704C0080E591F87
:1004F000880F991F009729F076956795B8F37105D5
:10050000B9F7802D952F0895991B79E004C0991FA4
:10051000961708F0961B881F7A95C9F7809508955D
:10052000AA1BBB1B51E107C0AA1FBB1FA617B70719
:1005300010F0A61BB70B881F991F5A95A9F7809535
:0C0540009095BC01CD010895F894FFCF08
:02054C000100AC
:00000001FF
