:1000000081C0000000C300001CC3000096C00000B7
:1000100094C0000092C0000090C000008EC000009C
:100020008CC000008AC0000088C00000A2C200008E
:1000300066C200008AC2000080C000007EC00000CE
:100040007CC000007AC0000078C0000076C00000CC
:1000500074C00000CD01450245024502450245023B
:100060004502450245024502450245024502450258
:10007000450245020F02450245024502450245027E
:1000800045024502C101C301C501C701C901CB0138
:10009000CF01D101D301D501D701D901DB01DD01A8
:1000A000DF01E101E301E501E701E901EB01ED0118
:1000B000EF01F101F301F501F701F901FB01FD0188
:1000C000FF01010203020502070209020B020D02F1
:1000D000110213021502170219021B021D021F0250
:1000E000210223022502270229022B022D022F02C0
:1000F000310233023502370239023B023D023F0230
:100100004102430211241FBECFE5D4E0DEBFCDBFC4
:1001100010E0A0E6B0E0E2E8F9E002C005900D9240
:10012000AA3CB107D9F720E0AAECB0E001C01D92CB
:10013000A83DB207E1F710D322C462CF882311F0A3
:10014000DA9A01C0DA9867FF02C0DF9A01C0DF982F
:1001500066FF02C0DE9A01C0DE9865FF02C0DD9A2C
:1001600001C0DD9864FF02C0DC9A01C0DC98DB9A14
:100170000000DB9863FF02C0DF9A01C0DF9862FFD6
:1001800002C0DE9A01C0DE9861FF02C0DD9A01C0A4
:10019000DD9860FF02C0DC9A01C0DC98DB9A0000A9
:1001A000DB988FE097E20197F1F700C00000089517
:1001B000682F80E0C3DF85E38A95F1F7000008959A
:1001C0008AB38C6F8ABB8FE19EE40197F1F700C080
:1001D000000080E3EDDF80E3EBDF80E3E9DF80E236
:1001E000E7DF80E2E5DF80E8E3DF80E0E1DF80E871
:1001F000DFDF80E0DDDF80E1DBDF80E0D9DF80E68C
:10020000D7DF83E0D5DF83E0D3DF83E0D1DF88E28F
:10021000CFDF88E2CDDF88E0CBDF81E0C9DF8FE090
:1002200097E20197F1F700C0000080E1C1DF86E0AE
:10023000BFDF82E0BDDF88E2BBDF8CE0B9CF682F93
:10024000606880E07BDF85E38A95F1F70000089520
:10025000682F81E073DF85E38A95F1F70000089548
:100260000F931F93CF93DF93EC018C01060F111DA9
:10027000C017D10719F08991EBDFFACFDF91CF9149
:100280001F910F910895FF920F931F93CF93DF93C8
:10029000F82E092F162F80E0D2DFCF2DD02FCE01E0
:1002A000810F911D8C01C017D10719F08991D0DF02
:1002B000FACFDF91CF911F910F91FF900895FF9298
:1002C0000F931F93CF93DF93F82E092F162F80E4FF
:1002D000B6DFCF2DD02FCE01810F911D8C01C0171D
:1002E000D10719F08991B4DFFACFDF91CF911F9137
:1002F0000F91FF9008952F923F924F925F926F92CD
:100300007F928F929F92AF92BF92CF92DF92EF92A5
:10031000FF920F931F93CF93DF937C0180E093ECC8
:1003200022EC36EEC1ECD0EC15EE08E74FEBD42E04
:1003300053E6C52E60E7B62E7EEBA72EEFE69E2E87
:10034000FDEB8F2EACEB7A2EBBEB6B2E4AEB542ED3
:1003500059EB452E68EB362E77EB272ED701A80FE9
:10036000B11DEC91EE2309F492C04E2F50E0FA013A
:10037000E85AF109E835F10508F087C0E65DFF4F5E
:10038000F8C241E481C040EA7FC042E47DC041EA56
:100390007BC040EE79C045E477C042EA75C043EACD
:1003A00073C044EA71C045EA6FC046EA6DC04BE4D1
:1003B0006BC047EA69C04DE467C048E465C04FE4DC
:1003C00063C048EA61C040E55FC043E45DC044E506
:1003D0005BC049EA59C04AEA57C048E555C041EEFA
:1003E00053C04BEA51C04CEA4FC042EE4DC04DEAFB
:1003F0004BC04EEA49C042E647C04FEA45C040EB19
:1004000043C041EB41C041E63FC042EB3DC043EB3E
:100410003BC044EB39C043EE37C045E635C045EB41
:1004200033C046EB31C02C9230C03C922EC04C926F
:100430002CC05C922AC06C9228C07C9226C08C9200
:1004400024C09C9222C0AC9220C0BC921EC0CC9210
:100450001CC0DC921AC049E717C044EE15C00C93CB
:1004600014C01C9312C0DC9310C0CC930EC03C93FC
:100470000CC02C930AC09C9308C044EC05C045EC0A
:1004800003C046EC01C047EC4C938F5F67CFDF9110
:10049000CF911F910F91FF90EF90DF90CF90BF9081
:1004A000AF909F908F907F906F905F904F903F9014
:1004B0002F9008950F931F93CF938C011CDFC0E002
:1004C000F801EC0FF11D8081882319F0C1DECF5FA8
:1004D000F7CFCF911F910F910895CF93DF93EC0148
:1004E00080E0ADDECE01DF91CF91E4CFCF93DF93FB
:1004F000EC0180E4A4DECE01DF91CF91DBCF1F922F
:100500000F920FB60F9211248F93EF93FF93E09108
:100510006200F0E0EC52FF4F80818CB98091620064
:10052000833031F481E0809362005598569A05C07B
:10053000809162008F5F80936200FF91EF918F91B5
:100540000F900FBE0F901F9018951F920F920FB62D
:100550000F9211248F938091CA0081608093CA000A
:1005600056989498579A8F910F900FBE0F901F90A6
:1005700018951F920F920FB60F9211242F938F93FD
:100580009F93EF93FF9380916100E82FF0E09CB17F
:10059000E253FF4F9083813029F49091CF009E3732
:1005A00041F517C08530A9F481E080936100579828
:1005B0009091D30080916000981304C08091CA008C
:1005C000826003C08091CA0084608093CA008FEF6C
:1005D0000EC08F5F809361009081809160008927B9
:1005E00098E027E0880F08F482279A95D9F780933E
:1005F0006000FF91EF919F918F912F910F900FBE0F
:100600000F901F9018951F920F920FB60F92112402
:100610008F939F938091CA0080618093CA008091DC
:10062000CA008F7D8093CA0087EC90E00197F1F7B4
:1006300000C000009F918F910F900FBE0F901F90F0
:1006400018951F920F920FB60F9211248F939F93BC
:100650008091CA008F7E8093CA008091CA00806218
:100660008093CA0087EC90E00197F1F700C000008A
:100670009F918F910F900FBE0F901F9018958CEF48
:100680008ABB83E08BBB17BA8FEF88BB14BA85BBDC
:1006900080EF81BB8FE182BB8BB7806C8BBF0895ED
:1006A000E4EDF0E02EE721832091730022FB662722
:1006B00060F970E084E0660F771F8A95E1F724FB0C
:1006C000442740F950E093E0440F551F9A95E1F715
:1006D000462B322F3170432B23FB882780F990E083
:1006E000880F991F880F991F842B2270822B828379
:1006F00091818FEF892798E027E0880F08F48227FF
:100700009A95D9F79281892798E027E0880F08F415
:1007100082279A95D9F783830895AEECB0E01296BC
:100720008C911297881F8827881FEBECF0E090814E
:1007300080FB90F9908313968C9113978283149683
:100740008C9181830895949A87EC90E00197F1F75A
:1007500000C00000559A0895CF93DF9300D000D0D9
:1007600000D0CDB7DEB78BDF2BDDEFD0E09163009B
:10077000F091640084E790E00995789491DFE3DFDD
:100780001AE00CE284E6F82E8091CA0081FD04C0D4
:100790008091CA0082FFF8CF8091CA0081FF78C0A3
:1007A0008091CA008D7F8093CA00B7DF2091CC0072
:1007B000243628F0822F6F2DD0D0805D01C080E2DA
:1007C0008C832A3030F0822F612FC7D0C6D0905D45
:1007D00001C090E29D83822F612FBFD0905D9E83E8
:1007E0008091CD00982F92959F70905D99830A8398
:1007F0008F70805D8B838091CA0083FD28C0E0915B
:100800006500F091660085E890E00995E09171003F
:10081000F09172008FEF0995E0916300F091640010
:100820008DE890E00995E0916700F091680086E915
:1008300090E00995E0917100F09172008FEF0995B9
:10084000E0916300F09164008EE990E00995E091F9
:100850006F00F091700081E40995E0916900F091DA
:100860006A0063E0CE0104960995E0916F00F09173
:10087000700089E40995E0916900F0916A0063E0F5
:10088000CE01019609958091CA0088608093CA00C4
:100890008091CA0082FF1CC08091CA008B7F809328
:1008A000CA008091CA0083FF07C0E0916500F09103
:1008B000660087EA90E00995E0916700F091680092
:1008C00088EB90E009958091CA00877F8093CA00E9
:1008D0008091CB0080FF02C0959A01C095988091CD
:1008E0007300C89B19C09091CC009E3140F42091B8
:1008F000CB0020FD04C08160809373001CC08E7FFC
:10090000809373009B35B8F08091CB0080FF13C0BB
:1009100080917300826012C09091CA0094FF13C04E
:100920009091CB0090FD0FC0816080937300809107
:10093000CA0085FDE9CF809173008D7F809373009D
:10094000AFDE01DF21CF8E7FF0CF88E18AB986E06C
:1009500080BD89E189B910BC0895991B79E004C074
:10096000991F961708F0961B881F7A95C9F78095EE
:100970000895EE0FFF1F0590F491E02D0994F8946F
:02098000FFCFA7
:10098200FF01015A026D027602300143015F011F2D
:100992000128011EC7E0EFF0EEF120E4E0EDEDFBEF
:1009A200F52E2E2E00D3F0EEE2E5EDFC00C4E0E2DF
:1009B200EBE5EDE8E5002020202025202000202086
:1009C2002020E0F2EC2E0020202020C2CDC8CCC096
:1009D200CDC8C5202020200020CDE5E2E5F0EDFBCA
:0A09E200E920EFF0E8E5EC2000004A
:00000001FF
