:1000000029C000001BC2000044C200003EC0000026
:100010003CC000003AC0000067C20000CAC2000035
:1000200034C0000032C0000030C00000B1C1000088
:1000300075C1000099C1000028C0000026C0000062
:1000400024C0000022C0000020C000001EC000002C
:100050001CC0000011241FBECFE5D4E0DEBFCDBF21
:1000600011E0A0E6B0E0ECE1FCE002C005900D92EA
:10007000A639B107D9F721E0A6E9B1E001C01D9288
:10008000A93AB207E1F70DD4C7C5BACF882311F05A
:10009000DA9A01C0DA98662314F4DF9A01C0DF9877
:1000A00066FF02C0DE9A01C0DE9865FF02C0DD9ADD
:1000B00001C0DD9864FF02C0DC9A01C0DC98DB9AC5
:1000C0000000DB9863FF02C0DF9A01C0DF9862FF87
:1000D00002C0DE9A01C0DE9861FF02C0DD9A01C055
:1000E000DD9860FF02C0DC9A01C0DC98DB9A00005A
:1000F000DB988FE097E20197F1F700C000000895C8
:100100008AB38C6F8ABB8FE19EE40197F1F700C040
:1001100000008FE39CE90197F1F700C0000063E065
:1001200080E0B4DF8FE697E10197F1F700C00000AF
:1001300063E080E0ABDF8FE697E10197F1F700C065
:10014000000063E080E0A2DF8FE697E10197F1F71E
:1001500000C000006AE280E099DF8FE697E1019736
:10016000F1F700C000006AE280E090DF8FE697E1DF
:100170000197F1F700C0000068E080E087DF8FE6BC
:1001800097E10197F1F700C0000061E080E07EDFB9
:100190008FE697E10197F1F700C0000060E180E091
:1001A00075DF8FE697E10197F1F700C0000066E088
:1001B00080E06CDF8FE697E10197F1F700C0000067
:1001C00062E080E063DF8FE697E10197F1F700C01E
:1001D00000006AE280E05ADF8FE697E10197F1F7CD
:1001E00000C000006CE080E051DF8FE697E10197EE
:1001F000F1F700C000000895682F606880E046DFD6
:1002000085E38A95F1F700000895682F81E03EDFCD
:1002100085E38A95F1F7000008950F931F93CF931C
:10022000DF93662369F0EC016150062F10E00F5F49
:100230001F4F080F191F8991E8DFC017D107D9F7A1
:10024000DF91CF911F910F910895EF92FF920F933D
:100250001F93CF93DF937C01162F80E0CDDF112316
:1002600069F0E7011150012F10E00F5F1F4F0E0DD5
:100270001F1D8991CADFC017D107D9F7DF91CF9130
:100280001F910F91FF90EF900895EF92FF920F93BF
:100290001F93CF93DF937C01162F80E4ADDF1123F2
:1002A00069F0E7011150012F10E00F5F1F4F0E0D95
:1002B0001F1D8991AADFC017D107D9F7DF91CF9110
:1002C0001F910F91FF90EF9008950F931F93CF937D
:1002D000FC018081882351F08F01C0E096DFCF5F61
:1002E000F801EC0FF11D80818111F8CFCF911F91A2
:1002F0000F910895CF93DF93EC0180E07DDFCE0175
:10030000E4DFDF91CF910895CF93DF93EC0180E498
:1003100073DFCE01DADFDF91CF9108951F920F9244
:100320000FB60F9211248F93EF93FF93E091620029
:10033000F0E0EB55FE4F80818CB9809162008330F4
:1003400031F481E0809362005598569A05C08091FF
:1003500062008F5F80936200FF91EF918F910F9009
:100360000FBE0F901F9018951F920F920FB60F920D
:1003700011248F938091730081608093730056984D
:100380009498579A8F910F900FBE0F901F901895C9
:100390001F920F920FB60F9211242F938F939F935A
:1003A000EF93FF93E0916100F0E08CB1E156FE4FD6
:1003B000808380916100813021F48091A0018E378B
:1003C00099F5809161008530C9F481E080936100E6
:1003D00057989091A40180916000981306C0809175
:1003E000730082608093730005C080917300846005
:1003F000809373008FEF8093600016C0E0916100DE
:1004000081E08E0F80936100F0E0E156FE4F908115
:1004100080916000892798E027E0880F08F4822700
:100420009A95D9F780936000FF91EF919F918F91FA
:100430002F910F900FBE0F901F9018951F920F9243
:100440000FB60F9211248F939F93C89B0BC080917E
:1004500073008F7E80937300809173008F7D8093F3
:10046000730010C08091730080618093730080914D
:1004700073008F7D8093730087EC90E00197F1F714
:1004800000C000009F918F910F900FBE0F901F90A2
:1004900018951F920F920FB60F9211248F939F936E
:1004A000C89B0BC0809173008F7E809373008091F6
:1004B00073008F7D8093730010C0809173008F7ED6
:1004C000809373008091730080628093730087EC47
:1004D00090E00197F1F700C000009F918F910F907D
:1004E0000FBE0F901F9018951F920F920FB60F928C
:1004F00011248F939F93EF93FF931DBC1CBC80919D
:10050000740080FF08C090919C0190FD06C09091FE
:1005100096019F5F03C090E001C090E09093960128
:1005200081FF08C080919C0180FF06C080919701E7
:100530008F5F03C080E001C080E0809397018091CD
:100540009C0180FF08C080919E01803230F4809130
:1005500098018F5F03C080E001C080E08093980124
:1005600080919C0180FD08C080919E018A3130F00D
:10057000809199018F5F03C080E001C080E080938B
:1005800099018091730083FD04C080919A018F5F6F
:1005900001C080E0E6E9F1E0848385818F5F858397
:1005A000FF91EF919F918F910F900FBE0F901F9031
:1005B00018951F920F920FB60F9211242F938F93BD
:1005C0009F9388B599B584389E4131F4969A81E01D
:1005D00090E099BD88BD05C0969884E89EE199BDDC
:1005E00088BD9F918F912F910F900FBE0F901F90FC
:1005F00018958CEF8ABB83E08BBB17BA8FEF88BB53
:1006000014BA85BB80EF81BB8FE182BB8AE085BFD6
:100610008BB7806C8BBF0895E5EAF1E02EE721836C
:100620002091740022FB662760F970E06295729554
:10063000707F7627607F762724FB442740F950E0BF
:10064000440F551F440F551F440F551F462B322F83
:100650003170432B23FB882780F990E0880F991F86
:10066000880F991F842B2270822B828391818FEFB8
:10067000892798E027E0880F08F482279A95D9F710
:100680009281892798E027E0880F08F482279A95BD
:10069000D9F783830895AFE9B1E012968C91129750
:1006A000881F8827881FECE9F1E0908180FB90F992
:1006B000908313968C911397828314968C918183E7
:1006C0000895949A87EC90E00197F1F700C000003C
:1006D000559A0895CF93DF93833039F128F4813010
:1006E00051F08230A9F055C08530C9F158F18630FB
:1006F00009F442C04EC0C3E6D0E0EA81FB8185E741
:1007000090E00995EC81FD8186E890E009954DC067
:10071000C3E6D0E0EA81FB8187E990E00995EC81AE
:10072000FD8188EA90E0099540C0C3E6D0E0EA8107
:10073000FB8189EB90E00995EC81FD818AEC90E0EA
:10074000099533C0C3E6D0E0EA81FB818BED90E0F0
:100750000995EC81FD818CEE90E0099526C0C3E6F9
:10076000D0E0EA81FB818DEF90E00995EC81FD817D
:100770008EE091E0099519C0C3E6D0E0EA81FB81E3
:100780008FE191E00995EC81FD8180E391E009958D
:100790000CC0C3E6D0E0EA81FB8181E491E00995D9
:1007A000EC81FD8182E591E00995DF91CF9108957B
:1007B000CF93C82F979A8EDFC63009F44FC080912F
:1007C00074008260809374008091730081FD04C086
:1007D0008091730082FFF8CF809173008D7F8093AA
:1007E0007300809173008B7F8093730015DF69DF46
:1007F0008091730081FD04C08091730082FFF8CF67
:100800008091730081FF25C0809173008D7F80935C
:100810007300809173008860809373003CDF809147
:100820009C0180FF02C0959A01C0959880919C011F
:1008300080FF04C080919E01803240F080919C0135
:1008400080FD06C080919E018A3110F0969A01C009
:100850009698809174008D7F809374009899FECF54
:100860009798E6E9F1E010821282118213821482D5
:100870001582809173008B7F809373008091730049
:100880008F7E80937300809173008F7D80937300BF
:1008900080917300806480937300BEDE12DFCF917D
:1008A0000895CF93DF9300D000D000D0CDB7DEB74E
:1008B000A0DE26DCA9D194D1E0916500F09166001C
:1008C00083E691E009957894A7DEFBDE0F2EF6E92A
:1008D000EF2EF1E0FF2EF02D0CE911E00F2EFDECD4
:1008E0009F2EF02D0F2EF9E6CF2EF0E0DF2EF02D0B
:1008F0000F2EF3E6AF2EF0E0BF2EF02D0F2EFCE210
:100900008F2EF02D0F2EF9E27F2EF02D80917300A7
:1009100081FD04C08091730082FF10C1D70115963C
:100920001C928091730081FF9CC0809173008D7F29
:1009300080937300B0DEF8018181843640F08181BC
:10094000879D812D112482958F70805D01C080E28A
:100950008C83D80111968C9111978A30B0F0119642
:100960008C91899D812D1124869586958695899DEA
:10097000912D1124969596959695990F292F220FD2
:10098000220F920F891B805D01C080E28D83F801E8
:100990008181899D912D1124969596959695990F13
:1009A000292F220F220F920F891B805D8E83828157
:1009B00082958F70805D89838A8282818F70805D4D
:1009C0008B838091730086FF2DC0809173008F7B95
:1009D00080937300D5011296ED91FC91139784E7F3
:1009E00091E00995E0917100F091720080EA09951B
:1009F000D501ED91FC918CE791E00995D501149614
:100A0000ED91FC91159785E891E00995E0917100D1
:100A1000F091720080EA0995D501ED91FC918DE885
:100A200091E00995E0916F00F091700081E40995E3
:100A3000D601ED91FC9163E0CE0104960995E09119
:100A40006F00F091700089E40995D601ED91FC9159
:100A500063E0CE01019609958091730088608093D0
:100A600073008091730082FF0AC0809173008B7FB6
:100A70008093730080917300877F80937300C89B7D
:100A800027C0F8018181893148F4808180FD06C04A
:100A90008091740081608093740005C0809174001F
:100AA0008E7F80937400D80111968C9111978036B7
:100AB00048F08C9180FF06C0809174008260809322
:100AC00074003AC0809174008D7F8093740034C0AC
:100AD000F8018181843651F4809173008F7E809378
:100AE0007300809173008062809373008091730023
:100AF00084FF0AC0D8018C9180FD06C080917400EB
:100B000081608093740005C0809174008E7F809313
:100B100074008091730085FF0AC0F801808180FF16
:100B200006C08091740082608093740005C080913B
:100B300074008D7F809374006FDDC3DDD8018C91CC
:100B400080FF02C0959A01C09598F801808180FFCE
:100B500003C08281803240F0D8018C9180FD09C0B1
:100B600012968C918A3128F089B7877F89BF969A2F
:100B70000FC0F8018181893138F4808180FD04C083
:100B800089B7886089BF04C089B7877F89BF969875
:100B9000D7018C91863010F081E00ADEF701828166
:100BA000863010F082E004DED70111968C918630F9
:100BB00010F083E0FDDDF7018381863010F084E0E2
:100BC000F7DDD70114968C91863010F085E0F0DDCA
:100BD000F70185818B3008F499CE86E0E9DD8ECE71
:100BE0001DBC1CBC1FBC84E08EBD89B7806189BF61
:100BF00089E09DE39BBD8ABD89B7886089BF84E891
:100C00009EE199BD88BD089588E18AB986E080BDDE
:0C0C100089E189B910BC0895F894FFCF69
:100C1C00FF010165017A0184010D0125014501FCEB
:100C2C00000501401E2020CEF8E8E1EAE020233048
:100C3C00783031202000C2EAEBFEF7E5EDE8E52044
:100C4C00EDE0F1EEF1E0002020CEF8E8E1EAE02062
:100C5C002330783032202000CDE8E7EAEEE520E4BE
:100C6C00E0E2EBE5EDE8E520002020CEF8E8E1EA53
:100C7C00E0202330783033202000C2FBEAEBFEF773
:100C8C00E5EDE8E520EDE0F1EEF1002020CEF8E80E
:100C9C00E1EAE0202330783034202000C2FBF1EE72
:100CAC00EAEEE520E4E0E2EBE5EDE8E5002020CE1D
:100CBC00F8E8E1EAE0202330783035202000CFF04E
:100CCC00E8E5EC20F120EEF8E8E1EAE0ECE80020C1
:100CDC0020CEF8E8E1EAE0202330783036202000FE
:100CEC00202020D1E2FFE7E820EDE5F221202020B2
:100CFC00002020CEF8E8E1EAE020233078464620B8
:100D0C002000CDE5E8E7E2E5F1F22E20EEF8E8E18F
:100D1C00EAE000C7E0EFF0EEF120E4E0EDEDFBF5EA
:100D2C002E2E2E00D3F0EEE2E5EDFC00C4E0E2EB5B
:100D3C00E5EDE8E5002020202025202000202020C3
:060D4C0020E0F2EC2E0095
:00000001FF
