:1000000081C00000CFC20000EBC2000096C000001B
:1000100094C0000092C0000090C000008EC000009C
:100020008CC000008AC0000088C0000071C20000BF
:1000300037C2000059C2000080C000007EC000002E
:100040007CC000007AC0000078C0000076C00000CC
:1000500074C000009E011602160216021602160255
:1000600016021602160216021602160216021602D0
:1000700016021602E00116021602160216021602F7
:100080001602160292019401960198019A019C01B0
:10009000A001A201A401A601A801AA01AC01AE0120
:1000A000B001B201B401B601B801BA01BC01BE0190
:1000B000C001C201C401C601C801CA01CC01CE0100
:1000C000D001D201D401D601D801DA01DC01DE0170
:1000D000E201E401E601E801EA01EC01EE01F001D0
:1000E000F201F401F601F801FA01FC01FE0100023F
:1000F00002020402060208020A020C020E021002A8
:100100001202140211241FBECFE5D4E0DEBFCDBF22
:1001100010E0A0E6B0E0E2E5F9E002C005900D9243
:10012000A43CB107D9F720E0A4ECB0E001C01D92D7
:10013000A03DB207E1F7D6D20AC462CF882311F0FE
:10014000DA9A01C0DA9867FF02C0DF9A01C0DF982F
:1001500066FF02C0DE9A01C0DE9865FF02C0DD9A2C
:1001600001C0DD9864FF02C0DC9A01C0DC98DB9A14
:100170000000DB9863FF02C0DF9A01C0DF9862FFD6
:1001800002C0DE9A01C0DE9861FF02C0DD9A01C0A4
:10019000DD9860FF02C0DC9A01C0DC98DB9A0000A9
:1001A000DB988FE097E20197F1F700C00000089517
:1001B000682F80E0C3DF85E38A95F1F7000008959A
:1001C0008AB38C6F8ABB8FE19EE40197F1F700C080
:1001D000000080E3EDDF80E3EBDF80E3E9DF80E236
:1001E000E7DF80E2E5DF80E8E3DF80E0E1DF80E871
:1001F000DFDF80E0DDDF80E1DBDF80E0D9DF80E68C
:10020000D7DF83E0D5DF83E0D3DF83E0D1DF88E28F
:10021000CFDF88E2CDDF88E0CBDF81E0C9DF8FE090
:1002200097E20197F1F700C0000080E1C1DF86E0AE
:10023000BFDF82E0BDDF88E2BBDF8CE0B9CF682F93
:10024000606880E07BDF85E38A95F1F70000089520
:10025000682F81E073DF85E38A95F1F70000089548
:10026000FF920F931F93CF93DF93F82E092F162F32
:10027000842FE5DFCF2DD02FCE01810F911D8C0172
:10028000C017D10719F08991E3DFFACFDF91CF9141
:100290001F910F91FF9008952F923F924F925F927E
:1002A0006F927F928F929F92AF92BF92CF92DF9286
:1002B000EF92FF920F931F93CF93DF937C0180E027
:1002C00093EC22EC36EEC1ECD0EC15EE08E74FEBE8
:1002D000D42E53E6C52E60E7B62E7EEBA72EEFE6B2
:1002E0009E2EFDEB8F2EACEB7A2EBBEB6B2E4AEBEA
:1002F000542E59EB452E68EB362E77EB272ED7017F
:10030000A80FB11DEC91EE2309F492C04E2F50E0DE
:10031000FA01E85AF109E835F10508F087C0E65D11
:10032000FF4F0FC341E481C040EA7FC042E47DC07B
:1003300041EA7BC040EE79C045E477C042EA75C02F
:1003400043EA73C044EA71C045EA6FC046EA6DC033
:100350004BE46BC047EA69C04DE467C048E465C040
:100360004FE463C048EA61C040E55FC043E45DC05C
:1003700044E55BC049EA59C04AEA57C048E555C060
:1003800041EE53C04BEA51C04CEA4FC042EE4DC063
:100390004DEA4BC04EEA49C042E647C04FEA45C06D
:1003A00040EB43C041EB41C041E63FC042EB3DC0A2
:1003B00043EB3BC044EB39C043EE37C045E635C0A4
:1003C00045EB33C046EB31C02C9230C03C922EC07E
:1003D0004C922CC05C922AC06C9228C07C9226C0A1
:1003E0008C9224C09C9222C0AC9220C0BC921EC0B1
:1003F000CC921CC0DC921AC049E717C044EE15C06D
:100400000C9314C01C9312C0DC9310C0CC930EC08C
:100410003C930CC02C930AC09C9308C044EC05C0CC
:1004200045EC03C046EC01C047EC4C938F5F67CFAF
:10043000DF91CF911F910F91FF90EF90DF90CF90C0
:10044000BF90AF909F908F907F906F905F904F90F4
:100450003F902F9008950F931F93CF938C011CDF33
:10046000C0E0F801EC0FF11D8081882319F0F0DE67
:10047000CF5FF7CFCF911F910F910895CF93DF9367
:10048000EC0180E0DCDECE01DF91CF91E4CFCF93B1
:10049000DF93EC0180E4D3DECE01DF91CF91DBCF9F
:1004A0001F920F920FB60F9211248F93EF93FF9329
:1004B000E0916200F0E0E353FF4F80818CB98091BE
:1004C0006200833031F481E0809362005598569A3F
:1004D00003C08F5F80936200FF91EF918F910F9027
:1004E0000FBE0F901F9018951F920F920FB60F928C
:1004F00011248F938091C40081608093C40056982A
:100500009498579A8F910F900FBE0F901F90189547
:100510001F920F920FB60F9211242F938F939F93D8
:10052000EF93FF9380916100E82FF0E09CB1E853D6
:10053000FF4F9083813029F49091C9009E3741F597
:1005400017C08530A9F481E080936100579890919D
:10055000CD0080916000981304C08091C400826037
:1005600003C08091C40084608093C4008FEF0EC0EC
:100570008F5F80936100908180916000892798E06F
:1005800027E0880F08F482279A95D9F780936000B6
:10059000FF91EF919F918F912F910F900FBE0F9030
:1005A0001F9018951F920F920FB60F9211248F93E0
:1005B0009F938091C40080618093C4008091C400A7
:1005C0008F7D8093C40087EC90E00197F1F700C025
:1005D00000009F918F910F900FBE0F901F90189564
:1005E0001F920F920FB60F9211248F939F938091B9
:1005F000C4008F7E8093C4008091C4008062809389
:10060000C40087EC90E00197F1F700C000009F91D3
:100610008F910F900FBE0F901F9018958CEF8ABB93
:1006200083E08BBB17BA8FEF88BB14BA85BB80EF12
:1006300081BB8FE182BB8BB7806C8BBF0895EDECE3
:10064000F0E02EE7218320916D0022FB662760F900
:1006500070E084E0660F771F8A95E1F724FB44275A
:1006600040F950E093E0440F551F9A95E1F7462B6F
:10067000322F3170432B23FB882780F990E0880FBD
:10068000991F880F991F842B2270822B828391815E
:100690008FEF892798E027E0880F08F482279A9542
:1006A000D9F79281892798E027E0880F08F48227FC
:1006B0009A95D9F783830895A8ECB0E012968C91AF
:1006C0001297881F8827881FE5ECF0E0908180FB57
:1006D00090F9908313968C911397828314968C9142
:1006E00081830895CF93DF9300D000D000D0CDB7A1
:1006F000DEB794DF65DD11D1E0916300F091640015
:100700008EE690E009957894949A80E28AB91AE08E
:1007100000E284E6F82E9CE2E92E8091C40081FF7D
:10072000A5C08091C4008D7F8093C400C5DF209157
:10073000C600243628F0822F6F2DF7D0805D01C0CF
:1007400080E28C832A3030F0822F612FEED0EDD002
:10075000905D01C090E29D83822F612FE6D0905D75
:100760009E838091C700982F92959F70905D99838A
:10077000EA828F70805D8B838091C40083FD28C0E6
:10078000E0916500F09166008FE790E00995E091B7
:100790006B00F0916C008FEF0995E0916300F09190
:1007A000640087E890E00995E0916700F0916800A7
:1007B00080E990E00995E0916B00F0916C008FEF7B
:1007C0000995E0916300F091640088E990E0099553
:1007D000E0916900F0916A0041E463E0CE01049683
:1007E0000995E0916900F0916A0049E463E0CE0167
:1007F0000196099580916D00C89B19C09091C60023
:100800009E3140F42091C50020FD04C0816080939A
:100810006D001CC08E7F80936D009B35B8F0809179
:10082000C50080FF13C080916D00826012C090915E
:10083000C40094FF19C09091C50090FD15C081605F
:1008400080936D008091C40085FDE9CF80916D009B
:100850008D7F80936D00F3DE949A0AB98091C40075
:1008600088608093C40002C08E7FEACF8091C4006C
:1008700082FF53CF8091C4008B7F8093C40080910E
:10088000C40083FF07C0E0916500F091660081EA33
:1008900090E00995E0916700F091680082EB90E0AC
:1008A000099580916D00C89B19C09091C6009E313A
:1008B00040F42091C50020FD04C0816080936D004C
:1008C0001CC08E7F80936D009B35B8F08091C50071
:1008D00080FF13C080916D00826012C09091C400AF
:1008E00094FF19C09091C50090FD15C08160809360
:1008F0006D008091C40085FDE9CF80916D008D7FF2
:1009000080936D009CDE949A0AB98091C400877F21
:100910008093C40002CF8E7FEACF88E18AB986E057
:1009200080BD89E189B910BC0895991B79E004C0A4
:10093000991F961708F0961B881F7A95C9F780951E
:100940000895EE0FFF1F0590F491E02D0994F8949F
:02095000FFCFD7
:10095200FF01012B023E024702300128011EC7E0BF
:10096200EFF0EEF120E4E0EDEDFBF52E2E2E00D3BC
:10097200F0EEE2E5EDFC00C4E0E2EBE5EDE8E500D7
:10098200202020202520200020202020E0F2EC2E14
:100992000020202020C2CDC8CCC0CDC8C520202038
:1009A200200020CDE5E2E5F0EDFBE920EFF0E8E5FF
:0409B200EC20000035
:00000001FF
